{
    "_format": "hh-sol-artifact-1",
    "contractName": "NFTMarketplace",
    "sourceName": "contracts/NFTMarketplace.sol",
    "abi": [
        {
            "inputs": [],
            "stateMutability": "nonpayable",
            "type": "constructor"
        },
        {
            "anonymous": false,
            "inputs": [
                {
                    "indexed": true,
                    "internalType": "address",
                    "name": "owner",
                    "type": "address"
                },
                {
                    "indexed": true,
                    "internalType": "address",
                    "name": "approved",
                    "type": "address"
                },
                {
                    "indexed": true,
                    "internalType": "uint256",
                    "name": "tokenId",
                    "type": "uint256"
                }
            ],
            "name": "Approval",
            "type": "event"
        },
        {
            "anonymous": false,
            "inputs": [
                {
                    "indexed": true,
                    "internalType": "address",
                    "name": "owner",
                    "type": "address"
                },
                {
                    "indexed": true,
                    "internalType": "address",
                    "name": "operator",
                    "type": "address"
                },
                {
                    "indexed": false,
                    "internalType": "bool",
                    "name": "approved",
                    "type": "bool"
                }
            ],
            "name": "ApprovalForAll",
            "type": "event"
        },
        {
            "anonymous": false,
            "inputs": [
                {
                    "indexed": false,
                    "internalType": "uint256",
                    "name": "_fromTokenId",
                    "type": "uint256"
                },
                {
                    "indexed": false,
                    "internalType": "uint256",
                    "name": "_toTokenId",
                    "type": "uint256"
                }
            ],
            "name": "BatchMetadataUpdate",
            "type": "event"
        },
        {
            "anonymous": false,
            "inputs": [
                {
                    "indexed": true,
                    "internalType": "uint256",
                    "name": "tokenId",
                    "type": "uint256"
                },
                {
                    "indexed": false,
                    "internalType": "address",
                    "name": "seller",
                    "type": "address"
                },
                {
                    "indexed": false,
                    "internalType": "address",
                    "name": "owner",
                    "type": "address"
                },
                {
                    "indexed": false,
                    "internalType": "uint256",
                    "name": "price",
                    "type": "uint256"
                },
                {
                    "indexed": false,
                    "internalType": "bool",
                    "name": "sold",
                    "type": "bool"
                }
            ],
            "name": "MarketItemCreated",
            "type": "event"
        },
        {
            "anonymous": false,
            "inputs": [
                {
                    "indexed": false,
                    "internalType": "uint256",
                    "name": "_tokenId",
                    "type": "uint256"
                }
            ],
            "name": "MetadataUpdate",
            "type": "event"
        },
        {
            "anonymous": false,
            "inputs": [
                {
                    "indexed": true,
                    "internalType": "address",
                    "name": "from",
                    "type": "address"
                },
                {
                    "indexed": true,
                    "internalType": "address",
                    "name": "to",
                    "type": "address"
                },
                {
                    "indexed": true,
                    "internalType": "uint256",
                    "name": "tokenId",
                    "type": "uint256"
                }
            ],
            "name": "Transfer",
            "type": "event"
        },
        {
            "inputs": [
                {
                    "internalType": "address",
                    "name": "to",
                    "type": "address"
                },
                {
                    "internalType": "uint256",
                    "name": "tokenId",
                    "type": "uint256"
                }
            ],
            "name": "approve",
            "outputs": [],
            "stateMutability": "nonpayable",
            "type": "function"
        },
        {
            "inputs": [
                {
                    "internalType": "address",
                    "name": "owner",
                    "type": "address"
                }
            ],
            "name": "balanceOf",
            "outputs": [
                {
                    "internalType": "uint256",
                    "name": "",
                    "type": "uint256"
                }
            ],
            "stateMutability": "view",
            "type": "function"
        },
        {
            "inputs": [
                {
                    "internalType": "uint256",
                    "name": "tokenId",
                    "type": "uint256"
                }
            ],
            "name": "createMarketSale",
            "outputs": [],
            "stateMutability": "payable",
            "type": "function"
        },
        {
            "inputs": [
                {
                    "internalType": "string",
                    "name": "cid",
                    "type": "string"
                },
                {
                    "internalType": "string",
                    "name": "uri",
                    "type": "string"
                },
                {
                    "internalType": "uint256",
                    "name": "price",
                    "type": "uint256"
                }
            ],
            "name": "createNFT",
            "outputs": [
                {
                    "internalType": "uint256",
                    "name": "",
                    "type": "uint256"
                }
            ],
            "stateMutability": "payable",
            "type": "function"
        },
        {
            "inputs": [],
            "name": "fetchItemsListed",
            "outputs": [
                {
                    "components": [
                        {
                            "internalType": "uint256",
                            "name": "tokenId",
                            "type": "uint256"
                        },
                        {
                            "internalType": "address payable",
                            "name": "seller",
                            "type": "address"
                        },
                        {
                            "internalType": "address payable",
                            "name": "owner",
                            "type": "address"
                        },
                        {
                            "internalType": "uint256",
                            "name": "price",
                            "type": "uint256"
                        },
                        {
                            "internalType": "bool",
                            "name": "sold",
                            "type": "bool"
                        }
                    ],
                    "internalType": "struct NFTMarketplace.MarketItem[]",
                    "name": "",
                    "type": "tuple[]"
                }
            ],
            "stateMutability": "view",
            "type": "function"
        },
        {
            "inputs": [],
            "name": "fetchMarketItems",
            "outputs": [
                {
                    "components": [
                        {
                            "internalType": "uint256",
                            "name": "tokenId",
                            "type": "uint256"
                        },
                        {
                            "internalType": "address payable",
                            "name": "seller",
                            "type": "address"
                        },
                        {
                            "internalType": "address payable",
                            "name": "owner",
                            "type": "address"
                        },
                        {
                            "internalType": "uint256",
                            "name": "price",
                            "type": "uint256"
                        },
                        {
                            "internalType": "bool",
                            "name": "sold",
                            "type": "bool"
                        }
                    ],
                    "internalType": "struct NFTMarketplace.MarketItem[]",
                    "name": "",
                    "type": "tuple[]"
                }
            ],
            "stateMutability": "view",
            "type": "function"
        },
        {
            "inputs": [],
            "name": "fetchMyNFTs",
            "outputs": [
                {
                    "components": [
                        {
                            "internalType": "uint256",
                            "name": "tokenId",
                            "type": "uint256"
                        },
                        {
                            "internalType": "address payable",
                            "name": "seller",
                            "type": "address"
                        },
                        {
                            "internalType": "address payable",
                            "name": "owner",
                            "type": "address"
                        },
                        {
                            "internalType": "uint256",
                            "name": "price",
                            "type": "uint256"
                        },
                        {
                            "internalType": "bool",
                            "name": "sold",
                            "type": "bool"
                        }
                    ],
                    "internalType": "struct NFTMarketplace.MarketItem[]",
                    "name": "",
                    "type": "tuple[]"
                }
            ],
            "stateMutability": "view",
            "type": "function"
        },
        {
            "inputs": [
                {
                    "internalType": "uint256",
                    "name": "tokenId",
                    "type": "uint256"
                }
            ],
            "name": "getApproved",
            "outputs": [
                {
                    "internalType": "address",
                    "name": "",
                    "type": "address"
                }
            ],
            "stateMutability": "view",
            "type": "function"
        },
        {
            "inputs": [],
            "name": "getListingPrice",
            "outputs": [
                {
                    "internalType": "uint256",
                    "name": "",
                    "type": "uint256"
                }
            ],
            "stateMutability": "view",
            "type": "function"
        },
        {
            "inputs": [
                {
                    "internalType": "uint256",
                    "name": "tokenId",
                    "type": "uint256"
                }
            ],
            "name": "getMinterByTokenId",
            "outputs": [
                {
                    "internalType": "address",
                    "name": "",
                    "type": "address"
                }
            ],
            "stateMutability": "view",
            "type": "function"
        },
        {
            "inputs": [
                {
                    "internalType": "address",
                    "name": "owner",
                    "type": "address"
                },
                {
                    "internalType": "address",
                    "name": "operator",
                    "type": "address"
                }
            ],
            "name": "isApprovedForAll",
            "outputs": [
                {
                    "internalType": "bool",
                    "name": "",
                    "type": "bool"
                }
            ],
            "stateMutability": "view",
            "type": "function"
        },
        {
            "inputs": [
                {
                    "internalType": "uint256",
                    "name": "",
                    "type": "uint256"
                }
            ],
            "name": "minterByTokenId",
            "outputs": [
                {
                    "internalType": "address",
                    "name": "",
                    "type": "address"
                }
            ],
            "stateMutability": "view",
            "type": "function"
        },
        {
            "inputs": [],
            "name": "name",
            "outputs": [
                {
                    "internalType": "string",
                    "name": "",
                    "type": "string"
                }
            ],
            "stateMutability": "view",
            "type": "function"
        },
        {
            "inputs": [
                {
                    "internalType": "uint256",
                    "name": "tokenId",
                    "type": "uint256"
                }
            ],
            "name": "ownerOf",
            "outputs": [
                {
                    "internalType": "address",
                    "name": "",
                    "type": "address"
                }
            ],
            "stateMutability": "view",
            "type": "function"
        },
        {
            "inputs": [
                {
                    "internalType": "uint256",
                    "name": "tokenId",
                    "type": "uint256"
                },
                {
                    "internalType": "uint256",
                    "name": "price",
                    "type": "uint256"
                }
            ],
            "name": "resellToken",
            "outputs": [],
            "stateMutability": "payable",
            "type": "function"
        },
        {
            "inputs": [
                {
                    "internalType": "address",
                    "name": "from",
                    "type": "address"
                },
                {
                    "internalType": "address",
                    "name": "to",
                    "type": "address"
                },
                {
                    "internalType": "uint256",
                    "name": "tokenId",
                    "type": "uint256"
                }
            ],
            "name": "safeTransferFrom",
            "outputs": [],
            "stateMutability": "nonpayable",
            "type": "function"
        },
        {
            "inputs": [
                {
                    "internalType": "address",
                    "name": "from",
                    "type": "address"
                },
                {
                    "internalType": "address",
                    "name": "to",
                    "type": "address"
                },
                {
                    "internalType": "uint256",
                    "name": "tokenId",
                    "type": "uint256"
                },
                {
                    "internalType": "bytes",
                    "name": "data",
                    "type": "bytes"
                }
            ],
            "name": "safeTransferFrom",
            "outputs": [],
            "stateMutability": "nonpayable",
            "type": "function"
        },
        {
            "inputs": [
                {
                    "internalType": "address",
                    "name": "operator",
                    "type": "address"
                },
                {
                    "internalType": "bool",
                    "name": "approved",
                    "type": "bool"
                }
            ],
            "name": "setApprovalForAll",
            "outputs": [],
            "stateMutability": "nonpayable",
            "type": "function"
        },
        {
            "inputs": [
                {
                    "internalType": "bytes4",
                    "name": "interfaceId",
                    "type": "bytes4"
                }
            ],
            "name": "supportsInterface",
            "outputs": [
                {
                    "internalType": "bool",
                    "name": "",
                    "type": "bool"
                }
            ],
            "stateMutability": "view",
            "type": "function"
        },
        {
            "inputs": [],
            "name": "symbol",
            "outputs": [
                {
                    "internalType": "string",
                    "name": "",
                    "type": "string"
                }
            ],
            "stateMutability": "view",
            "type": "function"
        },
        {
            "inputs": [
                {
                    "internalType": "uint256",
                    "name": "",
                    "type": "uint256"
                }
            ],
            "name": "tokenMetadata",
            "outputs": [
                {
                    "internalType": "string",
                    "name": "name",
                    "type": "string"
                },
                {
                    "internalType": "string",
                    "name": "description",
                    "type": "string"
                },
                {
                    "internalType": "string",
                    "name": "image",
                    "type": "string"
                }
            ],
            "stateMutability": "view",
            "type": "function"
        },
        {
            "inputs": [
                {
                    "internalType": "uint256",
                    "name": "tokenId",
                    "type": "uint256"
                }
            ],
            "name": "tokenURI",
            "outputs": [
                {
                    "internalType": "string",
                    "name": "",
                    "type": "string"
                }
            ],
            "stateMutability": "view",
            "type": "function"
        },
        {
            "inputs": [
                {
                    "internalType": "address",
                    "name": "from",
                    "type": "address"
                },
                {
                    "internalType": "address",
                    "name": "to",
                    "type": "address"
                },
                {
                    "internalType": "uint256",
                    "name": "tokenId",
                    "type": "uint256"
                }
            ],
            "name": "transferFrom",
            "outputs": [],
            "stateMutability": "nonpayable",
            "type": "function"
        },
        {
            "inputs": [
                {
                    "internalType": "uint256",
                    "name": "_listingPrice",
                    "type": "uint256"
                }
            ],
            "name": "updateListingPrice",
            "outputs": [],
            "stateMutability": "payable",
            "type": "function"
        },
        {
            "inputs": [],
            "name": "withdrawFunds",
            "outputs": [],
            "stateMutability": "nonpayable",
            "type": "function"
        }
    ],
    "bytecode": "0x608060405266071afd498d00006009553480156200001c57600080fd5b5060408051808201825260098152681158dbd3585c9ad95d60ba1b60208083019182528351808501909452600484526308a869eb60e31b9084015281519192916200006a916000916200009b565b508051620000809060019060208401906200009b565b5050600a80546001600160a01b03191633179055506200017d565b828054620000a99062000141565b90600052602060002090601f016020900481019282620000cd576000855562000118565b82601f10620000e857805160ff191683800117855562000118565b8280016001018555821562000118579182015b8281111562000118578251825591602001919060010190620000fb565b50620001269291506200012a565b5090565b5b808211156200012657600081556001016200012b565b600181811c908216806200015657607f821691505b6020821081036200017757634e487b7160e01b600052602260045260246000fd5b50919050565b612677806200018d6000396000f3fe6080604052600436106101665760003560e01c806345f8fa80116100d1578063a22cb4651161008a578063be9af53611610064578063be9af53614610432578063c87b56dd14610445578063e219fc7514610465578063e985e9c51461047857600080fd5b8063a22cb465146103df578063ae677aa3146103ff578063b88d4fde1461041257600080fd5b806345f8fa80146103105780635ed43c11146103255780636352211e1461035b5780636914db601461037b57806370a08231146103aa57806395d89b41146103ca57600080fd5b8063202e374011610123578063202e37401461025d5780632377188f1461027257806323b872dd146102a857806324600fc3146102c85780633241d34a146102dd57806342842e0e146102f057600080fd5b806301ffc9a71461016b57806306fdde03146101a0578063081812fc146101c2578063095ea7b3146101fa5780630f08efe01461021c57806312e855851461023e575b600080fd5b34801561017757600080fd5b5061018b610186366004611fc9565b6104c1565b60405190151581526020015b60405180910390f35b3480156101ac57600080fd5b506101b56104ec565b604051610197919061203e565b3480156101ce57600080fd5b506101e26101dd366004612051565b61057e565b6040516001600160a01b039091168152602001610197565b34801561020657600080fd5b5061021a610215366004612086565b6105a5565b005b34801561022857600080fd5b506102316106bf565b60405161019791906120b0565b34801561024a57600080fd5b506009545b604051908152602001610197565b34801561026957600080fd5b50610231610856565b34801561027e57600080fd5b506101e261028d366004612051565b6000908152600c60205260409020546001600160a01b031690565b3480156102b457600080fd5b5061021a6102c336600461212c565b610a2a565b3480156102d457600080fd5b5061021a610a5b565b61024f6102eb366004612214565b610b04565b3480156102fc57600080fd5b5061021a61030b36600461212c565b610b66565b34801561031c57600080fd5b50610231610b81565b34801561033157600080fd5b506101e2610340366004612051565b600c602052600090815260409020546001600160a01b031681565b34801561036757600080fd5b506101e2610376366004612051565b610d55565b34801561038757600080fd5b5061039b610396366004612051565b610db5565b60405161019793929190612281565b3480156103b657600080fd5b5061024f6103c53660046122c4565b610f6f565b3480156103d657600080fd5b506101b5610ff5565b3480156103eb57600080fd5b5061021a6103fa3660046122df565b611004565b61021a61040d366004612051565b611013565b34801561041e57600080fd5b5061021a61042d36600461231b565b61108b565b61021a610440366004612051565b6110c3565b34801561045157600080fd5b506101b5610460366004612051565b611228565b61021a610473366004612397565b611338565b34801561048457600080fd5b5061018b6104933660046123b9565b6001600160a01b03918216600090815260056020908152604080832093909416825291909152205460ff1690565b60006001600160e01b03198216632483248360e11b14806104e657506104e682611430565b92915050565b6060600080546104fb906123ec565b80601f0160208091040260200160405190810160405280929190818152602001828054610527906123ec565b80156105745780601f1061054957610100808354040283529160200191610574565b820191906000526020600020905b81548152906001019060200180831161055757829003601f168201915b5050505050905090565b600061058982611480565b506000908152600460205260409020546001600160a01b031690565b60006105b082610d55565b9050806001600160a01b0316836001600160a01b0316036106225760405162461bcd60e51b815260206004820152602160248201527f4552433732313a20617070726f76616c20746f2063757272656e74206f776e656044820152603960f91b60648201526084015b60405180910390fd5b336001600160a01b038216148061063e575061063e8133610493565b6106b05760405162461bcd60e51b815260206004820152603d60248201527f4552433732313a20617070726f76652063616c6c6572206973206e6f7420746f60448201527f6b656e206f776e6572206f7220617070726f76656420666f7220616c6c0000006064820152608401610619565b6106ba83836114df565b505050565b606060006106cc60075490565b905060006106d960085490565b6007546106e6919061243c565b90506000808267ffffffffffffffff81111561070457610704612168565b60405190808252806020026020018201604052801561075d57816020015b6040805160a0810182526000808252602080830182905292820181905260608201819052608082015282526000199092019101816107225790505b50905060005b8481101561084d5730600b600061077b846001612453565b81526020810191909152604001600020600201546001600160a01b03160361083b5760006107aa826001612453565b6000818152600b6020908152604091829020825160a0810184528154815260018201546001600160a01b039081169382019390935260028201549092169282019290925260038201546060820152600482015460ff1615156080820152855192935090918590879081106108205761082061246b565b6020908102919091010152610836600186612453565b945050505b8061084581612481565b915050610763565b50949350505050565b6060600061086360075490565b905060008060005b838110156108c55733600b6000610883846001612453565b81526020810191909152604001600020600201546001600160a01b0316036108b3576108b0600184612453565b92505b806108bd81612481565b91505061086b565b5060008267ffffffffffffffff8111156108e1576108e1612168565b60405190808252806020026020018201604052801561093a57816020015b6040805160a0810182526000808252602080830182905292820181905260608201819052608082015282526000199092019101816108ff5790505b50905060005b8481101561084d5733600b6000610958846001612453565b81526020810191909152604001600020600201546001600160a01b031603610a18576000610987826001612453565b6000818152600b6020908152604091829020825160a0810184528154815260018201546001600160a01b039081169382019390935260028201549092169282019290925260038201546060820152600482015460ff1615156080820152855192935090918590879081106109fd576109fd61246b565b6020908102919091010152610a13600186612453565b945050505b80610a2281612481565b915050610940565b610a34338261154d565b610a505760405162461bcd60e51b81526004016106199061249a565b6106ba8383836115cb565b600a546001600160a01b03163314610ac85760405162461bcd60e51b815260206004820152602a60248201527f4f6e6c792074686520636f6e7472616374206f776e65722063616e2077697468604482015269647261772066756e647360b01b6064820152608401610619565b600a546040516001600160a01b03909116904780156108fc02916000818181858888f19350505050158015610b01573d6000803e3d6000fd5b50565b6000610b14600780546001019055565b6000610b1f60075490565b9050610b2b338261172f565b610b3581856118ba565b610b3f818461198c565b6000818152600c6020526040902080546001600160a01b0319163317905590509392505050565b6106ba8383836040518060200160405280600081525061108b565b60606000610b8e60075490565b905060008060005b83811015610bf05733600b6000610bae846001612453565b81526020810191909152604001600020600101546001600160a01b031603610bde57610bdb600184612453565b92505b80610be881612481565b915050610b96565b5060008267ffffffffffffffff811115610c0c57610c0c612168565b604051908082528060200260200182016040528015610c6557816020015b6040805160a081018252600080825260208083018290529282018190526060820181905260808201528252600019909201910181610c2a5790505b50905060005b8481101561084d5733600b6000610c83846001612453565b81526020810191909152604001600020600101546001600160a01b031603610d43576000610cb2826001612453565b6000818152600b6020908152604091829020825160a0810184528154815260018201546001600160a01b039081169382019390935260028201549092169282019290925260038201546060820152600482015460ff161515608082015285519293509091859087908110610d2857610d2861246b565b6020908102919091010152610d3e600186612453565b945050505b80610d4d81612481565b915050610c6b565b6000818152600260205260408120546001600160a01b0316806104e65760405162461bcd60e51b8152602060048201526018602482015277115490cdcc8c4e881a5b9d985b1a59081d1bdad95b88125160421b6044820152606401610619565b600d60205260009081526040902080548190610dd0906123ec565b80601f0160208091040260200160405190810160405280929190818152602001828054610dfc906123ec565b8015610e495780601f10610e1e57610100808354040283529160200191610e49565b820191906000526020600020905b815481529060010190602001808311610e2c57829003601f168201915b505050505090806001018054610e5e906123ec565b80601f0160208091040260200160405190810160405280929190818152602001828054610e8a906123ec565b8015610ed75780601f10610eac57610100808354040283529160200191610ed7565b820191906000526020600020905b815481529060010190602001808311610eba57829003601f168201915b505050505090806002018054610eec906123ec565b80601f0160208091040260200160405190810160405280929190818152602001828054610f18906123ec565b8015610f655780601f10610f3a57610100808354040283529160200191610f65565b820191906000526020600020905b815481529060010190602001808311610f4857829003601f168201915b5050505050905083565b60006001600160a01b038216610fd95760405162461bcd60e51b815260206004820152602960248201527f4552433732313a2061646472657373207a65726f206973206e6f7420612076616044820152683634b21037bbb732b960b91b6064820152608401610619565b506001600160a01b031660009081526003602052604090205490565b6060600180546104fb906123ec565b61100f338383611ae2565b5050565b600a546001600160a01b031633146110865760405162461bcd60e51b815260206004820152603060248201527f4f6e6c79206d61726b6574706c616365206f776e65722063616e20757064617460448201526f32903634b9ba34b73390383934b1b29760811b6064820152608401610619565b600955565b611095338361154d565b6110b15760405162461bcd60e51b81526004016106199061249a565b6110bd84848484611bb0565b50505050565b6000818152600b6020526040902060038101546001909101546001600160a01b031634821461115c576040805162461bcd60e51b81526020600482015260248101919091527f506c65617365207375626d6974207468652061736b696e67207072696365206960448201527f6e206f7264657220746f20636f6d706c657465207468652070757263686173656064820152608401610619565b6000838152600b602052604090206002810180546001600160a01b0319908116331790915560048201805460ff19166001908117909155909101805490911690556111ab600880546001019055565b6111b63033856115cb565b600a546009546040516001600160a01b039092169181156108fc0291906000818181858888f193505050501580156111f2573d6000803e3d6000fd5b506040516001600160a01b038216903480156108fc02916000818181858888f193505050501580156110bd573d6000803e3d6000fd5b606061123382611480565b6000828152600660205260408120805461124c906123ec565b80601f0160208091040260200160405190810160405280929190818152602001828054611278906123ec565b80156112c55780601f1061129a576101008083540402835291602001916112c5565b820191906000526020600020905b8154815290600101906020018083116112a857829003601f168201915b5050505050905060006112e360408051602081019091526000815290565b905080516000036112f5575092915050565b81511561132757808260405160200161130f9291906124e7565b60405160208183030381529060405292505050919050565b61133084611be3565b949350505050565b6000828152600b60205260409020600201546001600160a01b031633146113b45760405162461bcd60e51b815260206004820152602a60248201527f4f6e6c79206974656d206f776e65722063616e20706572666f726d20746869736044820152691037b832b930ba34b7b760b11b6064820152608401610619565b60095434146113d55760405162461bcd60e51b815260040161061990612516565b6000828152600b6020526040902060048101805460ff19169055600381018290556001810180546001600160a01b0319908116331790915560029091018054909116301790556114256008611c57565b61100f3330846115cb565b60006001600160e01b031982166380ac58cd60e01b148061146157506001600160e01b03198216635b5e139f60e01b145b806104e657506301ffc9a760e01b6001600160e01b03198316146104e6565b6000818152600260205260409020546001600160a01b0316610b015760405162461bcd60e51b8152602060048201526018602482015277115490cdcc8c4e881a5b9d985b1a59081d1bdad95b88125160421b6044820152606401610619565b600081815260046020526040902080546001600160a01b0319166001600160a01b038416908117909155819061151482610d55565b6001600160a01b03167f8c5be1e5ebec7d5bd14f71427d1e84f3dd0314c0f7b2291e5b200ac8c7c3b92560405160405180910390a45050565b60008061155983610d55565b9050806001600160a01b0316846001600160a01b031614806115a057506001600160a01b0380821660009081526005602090815260408083209388168352929052205460ff165b806113305750836001600160a01b03166115b98461057e565b6001600160a01b031614949350505050565b826001600160a01b03166115de82610d55565b6001600160a01b0316146116045760405162461bcd60e51b81526004016106199061255a565b6001600160a01b0382166116665760405162461bcd60e51b8152602060048201526024808201527f4552433732313a207472616e7366657220746f20746865207a65726f206164646044820152637265737360e01b6064820152608401610619565b826001600160a01b031661167982610d55565b6001600160a01b03161461169f5760405162461bcd60e51b81526004016106199061255a565b600081815260046020908152604080832080546001600160a01b03199081169091556001600160a01b0387811680865260038552838620805460001901905590871680865283862080546001019055868652600290945282852080549092168417909155905184937fddf252ad1be2c89b69c2b068fc378daa952ba7f163c4a11628f55a4df523b3ef91a4505050565b6001600160a01b0382166117855760405162461bcd60e51b815260206004820181905260248201527f4552433732313a206d696e7420746f20746865207a65726f20616464726573736044820152606401610619565b6000818152600260205260409020546001600160a01b0316156117ea5760405162461bcd60e51b815260206004820152601c60248201527f4552433732313a20746f6b656e20616c7265616479206d696e746564000000006044820152606401610619565b6000818152600260205260409020546001600160a01b03161561184f5760405162461bcd60e51b815260206004820152601c60248201527f4552433732313a20746f6b656e20616c7265616479206d696e746564000000006044820152606401610619565b6001600160a01b038216600081815260036020908152604080832080546001019055848352600290915280822080546001600160a01b0319168417905551839291907fddf252ad1be2c89b69c2b068fc378daa952ba7f163c4a11628f55a4df523b3ef908290a45050565b6000828152600260205260409020546001600160a01b03166119355760405162461bcd60e51b815260206004820152602e60248201527f45524337323155524953746f726167653a2055524920736574206f66206e6f6e60448201526d32bc34b9ba32b73a103a37b5b2b760911b6064820152608401610619565b6000828152600660209081526040909120825161195492840190611f1a565b506040518281527ff8e1a15aba9398e019f0b49df1a4fde98ee17ae345cb5f6b5e2c27f5033e8ce79060200160405180910390a15050565b600081116119dc5760405162461bcd60e51b815260206004820152601c60248201527f5072696365206d757374206265206174206c65617374203120776569000000006044820152606401610619565b60095434146119fd5760405162461bcd60e51b815260040161061990612516565b6040805160a08101825283815233602080830182815230848601818152606086018881526000608088018181528b8252600b909652979097209551865591516001860180546001600160a01b03199081166001600160a01b0393841617909155925160028701805490941691161790915593516003840155516004909201805460ff191692151592909217909155611a9591846115cb565b604080513381523060208201529081018290526000606082015282907fb640004f1d14576d0c209e240cad0410e0d8c0c33a09375861fbadae2588a98d9060800160405180910390a25050565b816001600160a01b0316836001600160a01b031603611b435760405162461bcd60e51b815260206004820152601960248201527f4552433732313a20617070726f766520746f2063616c6c6572000000000000006044820152606401610619565b6001600160a01b03838116600081815260056020908152604080832094871680845294825291829020805460ff191686151590811790915591519182527f17307eab39ab6107e8899845ad3d59bd9653f200f220920489ca2b5937696c31910160405180910390a3505050565b611bbb8484846115cb565b611bc784848484611cae565b6110bd5760405162461bcd60e51b81526004016106199061259f565b6060611bee82611480565b6000611c0560408051602081019091526000815290565b90506000815111611c255760405180602001604052806000815250611c50565b80611c2f84611daf565b604051602001611c409291906124e7565b6040516020818303038152906040525b9392505050565b805480611ca65760405162461bcd60e51b815260206004820152601b60248201527f436f756e7465723a2064656372656d656e74206f766572666c6f7700000000006044820152606401610619565b600019019055565b60006001600160a01b0384163b15611da457604051630a85bd0160e11b81526001600160a01b0385169063150b7a0290611cf29033908990889088906004016125f1565b6020604051808303816000875af1925050508015611d2d575060408051601f3d908101601f19168201909252611d2a91810190612624565b60015b611d8a573d808015611d5b576040519150601f19603f3d011682016040523d82523d6000602084013e611d60565b606091505b508051600003611d825760405162461bcd60e51b81526004016106199061259f565b805181602001fd5b6001600160e01b031916630a85bd0160e11b149050611330565b506001949350505050565b60606000611dbc83611e42565b600101905060008167ffffffffffffffff811115611ddc57611ddc612168565b6040519080825280601f01601f191660200182016040528015611e06576020820181803683370190505b5090508181016020015b600019016f181899199a1a9b1b9c1cb0b131b232b360811b600a86061a8153600a8504945084611e1057509392505050565b60008072184f03e93ff9f4daa797ed6e38ed64bf6a1f0160401b8310611e815772184f03e93ff9f4daa797ed6e38ed64bf6a1f0160401b830492506040015b6d04ee2d6d415b85acef81000000008310611ead576d04ee2d6d415b85acef8100000000830492506020015b662386f26fc100008310611ecb57662386f26fc10000830492506010015b6305f5e1008310611ee3576305f5e100830492506008015b6127108310611ef757612710830492506004015b60648310611f09576064830492506002015b600a83106104e65760010192915050565b828054611f26906123ec565b90600052602060002090601f016020900481019282611f485760008555611f8e565b82601f10611f6157805160ff1916838001178555611f8e565b82800160010185558215611f8e579182015b82811115611f8e578251825591602001919060010190611f73565b50611f9a929150611f9e565b5090565b5b80821115611f9a5760008155600101611f9f565b6001600160e01b031981168114610b0157600080fd5b600060208284031215611fdb57600080fd5b8135611c5081611fb3565b60005b83811015612001578181015183820152602001611fe9565b838111156110bd5750506000910152565b6000815180845261202a816020860160208601611fe6565b601f01601f19169290920160200192915050565b602081526000611c506020830184612012565b60006020828403121561206357600080fd5b5035919050565b80356001600160a01b038116811461208157600080fd5b919050565b6000806040838503121561209957600080fd5b6120a28361206a565b946020939093013593505050565b602080825282518282018190526000919060409081850190868401855b8281101561211f57815180518552868101516001600160a01b03908116888701528682015116868601526060808201519086015260809081015115159085015260a090930192908501906001016120cd565b5091979650505050505050565b60008060006060848603121561214157600080fd5b61214a8461206a565b92506121586020850161206a565b9150604084013590509250925092565b634e487b7160e01b600052604160045260246000fd5b600067ffffffffffffffff8084111561219957612199612168565b604051601f8501601f19908116603f011681019082821181831017156121c1576121c1612168565b816040528093508581528686860111156121da57600080fd5b858560208301376000602087830101525050509392505050565b600082601f83011261220557600080fd5b611c508383356020850161217e565b60008060006060848603121561222957600080fd5b833567ffffffffffffffff8082111561224157600080fd5b61224d878388016121f4565b9450602086013591508082111561226357600080fd5b50612270868287016121f4565b925050604084013590509250925092565b6060815260006122946060830186612012565b82810360208401526122a68186612012565b905082810360408401526122ba8185612012565b9695505050505050565b6000602082840312156122d657600080fd5b611c508261206a565b600080604083850312156122f257600080fd5b6122fb8361206a565b91506020830135801515811461231057600080fd5b809150509250929050565b6000806000806080858703121561233157600080fd5b61233a8561206a565b93506123486020860161206a565b925060408501359150606085013567ffffffffffffffff81111561236b57600080fd5b8501601f8101871361237c57600080fd5b61238b8782356020840161217e565b91505092959194509250565b600080604083850312156123aa57600080fd5b50508035926020909101359150565b600080604083850312156123cc57600080fd5b6123d58361206a565b91506123e36020840161206a565b90509250929050565b600181811c9082168061240057607f821691505b60208210810361242057634e487b7160e01b600052602260045260246000fd5b50919050565b634e487b7160e01b600052601160045260246000fd5b60008282101561244e5761244e612426565b500390565b6000821982111561246657612466612426565b500190565b634e487b7160e01b600052603260045260246000fd5b60006001820161249357612493612426565b5060010190565b6020808252602d908201527f4552433732313a2063616c6c6572206973206e6f7420746f6b656e206f776e6560408201526c1c881bdc88185c1c1c9bdd9959609a1b606082015260800190565b600083516124f9818460208801611fe6565b83519083019061250d818360208801611fe6565b01949350505050565b60208082526024908201527f5072696365206d75737420626520657175616c20746f206c697374696e6720706040820152637269636560e01b606082015260800190565b60208082526025908201527f4552433732313a207472616e736665722066726f6d20696e636f72726563742060408201526437bbb732b960d91b606082015260800190565b60208082526032908201527f4552433732313a207472616e7366657220746f206e6f6e20455243373231526560408201527131b2b4bb32b91034b6b83632b6b2b73a32b960711b606082015260800190565b6001600160a01b03858116825284166020820152604081018390526080606082018190526000906122ba90830184612012565b60006020828403121561263657600080fd5b8151611c5081611fb356fea264697066735822122034328747621de0e9786a89ebd85d8444a24e48b962638c5d7f34389b96dca80564736f6c634300080d0033",
    "linkReferences": {},
    "deployedLinkReferences": {}
}